:100000000C9464000C948C000C948C000C948C0068
:100010000C948C000C948C000C948C000C946A0949
:100020000C948C000C948C000C948C000C948C0020
:100030000C948C000C948C000C948C000C948C0010
:100040000C9420090C948C000C94EC090C94C609B7
:100050000C948C000C948C000C948C000C948C00F0
:100060000C948C000C948C000200000000240027EB
:10007000002A00000000080002010000030407003D
:1000800000000000000000000000002300260029FE
:100090000000000000250028002B000404040404D4
:1000A0000404040202020202020303030303030125
:1000B00002040810204080010204081020010204FC
:1000C00008102000B50A551111241FBECFEFD8E04B
:1000D000DEBFCDBF22E0A4E9B1E001C01D92AA3984
:1000E000B207E1F711E0A0E0B1E0EAE5FDE202C00D
:1000F00005900D92A439B107D9F710E0C3E6D0E01E
:1001000004C02197FE010E948614C236D107C9F7A8
:100110000E940D0B0C94A0160C940000CF92DF925D
:10012000EF92FF92CF93DF93B0918A02A0E081110A
:10013000AB2F80918B0290E0880F991FAC0149573B
:100140005F4FC0909002D0909102E0909202F090A8
:10015000930230E020E0FA01C591D491E881B90121
:1001600090E080E0EB23EA130AC02F5F3F4F6C154D
:100170007D058E059F0578F36FEF7FEFCB01DF9153
:10018000CF91FF90EF90DF90CF900895833081F072
:1001900028F4813099F08230A9F008958730A9F0D1
:1001A0008830C9F08430B1F4809180008F7D03C025
:1001B000809180008F7780938000089584B58F7739
:1001C00084BD089584B58F7DFBCF8091B0008F777B
:1001D0008093B00008958091B0008F7DF9CF1F9378
:1001E000CF93DF93282F30E0F901ED58FF4F849132
:1001F000F901E155FF4FD491F901E556FF4FC49144
:10020000CC23A9F0162F81110E94C600EC2FF0E03C
:10021000EE0FFF1FEF56FF4FA591B4918FB7F894E3
:10022000EC91111108C0D095DE23DC938FBFDF91D4
:10023000CF911F910895DE2BF8CFCF93DF9390E0FD
:10024000FC01E155FF4F249185569F4FFC0184919D
:100250008823C9F090E0880F991FFC01E759FF4FF0
:10026000A591B491FC01EF56FF4FC591D491611156
:100270000DC09FB7F8948C91209582238C93888130
:10028000282328839FBFDF91CF910895623051F4D6
:100290009FB7F8943C91822F809583238C93E881BB
:1002A0002E2BEFCF8FB7F894EC912E2B2C938FBF82
:1002B000EACF1F93CF93DF93182FEB0161E00E94E9
:1002C0001D01209739F460E0812FDF91CF911F91BC
:1002D0000C94EF00CF3FD10511F461E0F5CFE12F91
:1002E000F0E0ED58FF4FE491E33031F140F4E130BC
:1002F000B1F0E230E1F0C038D1057CF7E4CFE7306F
:1003000029F1E83059F1E430B1F780918000806242
:1003100080938000D0938B00C0938A0004C084B582
:10032000806884BDC7BDDF91CF911F91089584B5CA
:10033000806284BDC8BDF7CF8091800080688093C3
:100340008000D0938900C0938800EDCF8091B000E9
:1003500080688093B000C093B300E5CF8091B00077
:1003600080628093B000C093B400DDCF3FB7F894B3
:100370008091B6019091B701A091B801B091B901F7
:1003800026B5A89B05C02F3F19F00196A11DB11DF0
:100390003FBFBA2FA92F982F8827BC01CD01620F2C
:1003A000711D811D911D42E0660F771F881F991FE7
:1003B0004A95D1F708958F929F92AF92BF92CF92B4
:1003C000DF92EF92FF924B015C010E94B6016B013C
:1003D0007C010E94B6016C197D098E099F09683E57
:1003E000734081059105A8F321E0821A9108A108C4
:1003F000B10888EEC80E83E0D81EE11CF11C811400
:100400009104A104B10429F7FF90EF90DF90CF9001
:10041000BF90AF909F908F9008952FB7F894609100
:10042000B2017091B3018091B4019091B5012FBFD9
:100430000895CF92DF92EF92FF920F931F93CF9385
:10044000DF93CDB7DEB7C054D1400FB6F894DEBF0E
:100450000FBECDBF0E940D0200918C0210918D0243
:1004600020918E0230918F026B017C01C01AD10A5B
:10047000E20AF30A97018601003D17402105310584
:1004800090F480919402C05CDE4F0FB6F894DEBF0A
:100490000FBECDBFDF91CF911F910F91FF90EF90D5
:1004A000DF90CF90089560938C0270938D028093BB
:1004B0008E0290938F021092870210928602109201
:1004C0008502109284021092830262E08091880279
:1004D0000E941D0161E070E080E090E00E94DB017D
:1004E00061E0809188020E941D0160E08091880295
:1004F0000E94EF00809189028551823020F58BE2C5
:1005000091E10197F1F762E0809188020E941D015C
:100510008091950290E08230910538F0880F991F04
:10052000880F991F05970197F1F7F89480E00E94D2
:100530008E006F3F7F4F8F4F9F4F61F41092940258
:10054000789480E0A0CF64E170E080E090E00E94C9
:10055000DB01D9CF81E00E948E006F3F7F4F8F4F2C
:100560009F4F61F38E010F5F1F4F6E012FEBC21A79
:100570002EEFD20A780180E00E948E00F70160839E
:1005800071838283938381E00E948E00F7016483EC
:10059000758386839783F8E0EF0EF11CEC14FD045D
:1005A00051F7789430E020E0F801C080D180E280FB
:1005B000F3804481558166817781FFEFCF16DF0696
:1005C000EF06FF0631F04F3F8FEF580768077807B7
:1005D00019F410929402B5CFF90183E0F595E795EF
:1005E0008A95E1F7ED57FD4F8081880FC416D50637
:1005F000E606F70610F180832F5F3F4F085F1F4F1D
:100600002832310589F6409187022091830280913A
:100610008402280F3327331F80918502280F311D54
:1006200080918602820F932F911D992748171906F2
:1006300081F681E08093940226CF8160DCCF909197
:10064000000189130BC0E8E6F0E0E4919FEF90937E
:100650000001E13049F028F0E23061F060E00C94F4
:10066000EF0010926E00FACF90916F009D7F9093F3
:100670006F00F4CF909170009D7F9093700091E097
:100680009093B0009091B100987F94609093B100E6
:100690001092B300E3CFAF92BF92CF92DF92EF926E
:1006A000FF920F931F93CF93DF936C017B018B011C
:1006B000040F151FEB015E01AE18BF08C017D1076C
:1006C00059F06991D601ED91FC910190F081E02DF6
:1006D000C6010995892B79F7C501DF91CF911F914B
:1006E0000F91FF90EF90DF90CF90BF90AF90089563
:1006F000FC01538D448D252F30E0842F90E0821B28
:10070000930B541710F0CF96089501970895FC01AC
:10071000918D828D981761F0A28DAE0FBF2FB11D04
:100720005D968C91928D9F5F9F73928F90E008955C
:100730008FEF9FEF08950F931F930E940D02609318
:10074000C2017093C3018093C4019093C5018AEBE9
:1007500091E00E94870397FF1DC00E940D02009147
:10076000C2011091C3012091C4013091C501601BE9
:10077000710B820B930B0091BE011091BF01209170
:10078000C0013091C1016017710782079307F8F229
:100790008FEF9FEF1F910F910895FC01918D828D36
:1007A000981731F0828DE80FF11D858D90E0089546
:1007B0008FEF9FEF0895FC01918D228D892F90E09E
:1007C000805C9F4F821B91098F73992708958AEB54
:1007D00091E00E94DB0321E0892B09F420E0822FC5
:1007E000089580E090E0892B29F00E94E7038111B1
:1007F0000C9400000895FC01A48DA80FB92FB11D21
:10080000A35ABF4F2C91848D90E001968F73992746
:10081000848FA689B7892C93A089B1898C91837024
:1008200080648C93938D848D981306C00288F3891D
:10083000E02D80818F7D80830895EF92FF920F934A
:100840001F93CF93DF93EC0181E0888F9B8D8C8D7C
:1008500098131AC0E889F989808185FF15C09FB770
:10086000F894EE89FF896083E889F9898081837033
:10087000806480839FBF81E090E0DF91CF911F91E2
:100880000F91FF90EF900895F62E0B8D10E00F5F03
:100890001F4F0F731127E02E8C8D8E110CC00FB6D9
:1008A00007FCFACFE889F989808185FFF5CFCE0171
:1008B0000E94FB03F1CFEB8DEC0FFD2FF11DE35AEE
:1008C000FF4FF0829FB7F8940B8FEA89FB898081F4
:1008D0008062CFCFCF93DF93EC01888D8823B9F06E
:1008E000AA89BB89E889F9898C9185FD03C080813B
:1008F00086FD0DC00FB607FCF7CF8C9185FFF2CFB8
:10090000808185FFEDCFCE010E94FB03E9CFDF910F
:10091000CF910895CF93DF93EC018E819F8197FD56
:100920000CC061E00E941D0160E08E810E94EF001A
:1009300081E08983DF91CF910895198280E0FACF19
:10094000CF93DF9381302FEF920724F19C018F3FEB
:10095000910519F014F02FEF30E0009719F0E4F052
:10096000245F3F4FE9012F3F310519F014F0CFEF1D
:10097000D0E0121613062CF561E088E00E94EF002B
:1009800060E089E00E94EF00BE018AE0DF91CF9134
:100990000C94590121E03FEFE9012C97C1308FEF12
:1009A000D80714F4C1E0DFEF60E088E00E94EF00B8
:1009B00061E089E00E94EF00662777276C1B7D0BC2
:1009C000E4CF37FDF1CF60E088E00E94EF0060E007
:1009D00089E00E94EF006FEF70E0D7CFCF93DF93F5
:1009E00081302FEF92073CF1EC018F3F910519F018
:1009F00014F0CFEFD0E01816190674F461E086E029
:100A00000E94EF0060E087E00E94EF00BE0185E0F9
:100A1000DF91CF910C945901892B81F060E086E041
:100A20000E94EF0061E087E00E94EF0066277727D1
:100A30006C1B7D0BECCFC1E0DFEFF0CF60E086E018
:100A40000E94EF0060E087E00E94EF006FEF70E02F
:100A5000DECF90E080E00E94EE0490E080E00E9413
:100A6000A0048BE00C941F03CF93DF93EC018881EB
:100A70009981009711F00E942815198218821D8211
:100A80001C821B821A82DF91CF910895FC01808124
:100A90009181009711F00C9428150895FC010190A4
:100AA0000020E9F73197AF01481B590BBC018AEBD5
:100AB00091E00C944B038F929F92AF92BF920F9351
:100AC0001F93CF93DF93CDB7DEB7A1970FB6F894FE
:100AD000DEBF0FBECDBF19A2423008F44AE08E013E
:100AE0000F5D1F4F842E912CB12CA12CA5019401D8
:100AF0000E943E14E62FB901CA01EA30F4F4E05D29
:100B0000D801EE938D01232B242B252B79F790E030
:100B100080E0109719F0CD010E944E05A1960FB606
:100B2000F894DEBF0FBECDBFDF91CF911F910F9123
:100B3000BF90AF909F908F900895E95CE1CF4F9266
:100B40005F926F927F928F929F92AF92BF92CF925D
:100B5000DF92EF92FF920F931F93CF936B017C0173
:100B6000742EAC019B010E943914882399F08AE10C
:100B700091E0CF911F910F91FF90EF90DF90CF9078
:100B8000BF90AF909F908F907F906F905F904F90AD
:100B90000C944E0546015701E894B7F82FEF3FEF4C
:100BA0004FE75FE7C501B4010E94391481110DC000
:100BB0002FEF3FEF4FE75FE7C501B4010E94B91186
:100BC00018161CF48EE191E0D4CF2FEF3FEF4FE7E2
:100BD0005FE4C701B6010E94341418161CF482E2C7
:100BE00091E0C7CF2FEF3FEF4FE75FECC701B601B2
:100BF0000E94B91187FDF3CF20E030E0A901C701C1
:100C0000B6010E94B91110E000E087FF0AC06DE252
:100C10008AEB91E00E941D048C01F7FAF094F7F83A
:100C2000F094C0E060E070E080E09FE37C1641F06B
:100C300020E030E040E251E40E949313CF5FF6CF12
:100C4000A70196010E9427132B013C010E94051465
:100C50004B015C014AE00E945B057C01E00EF11E45
:100C6000CC23C1F1C501B4010E94BE119B01AC01AE
:100C7000C301B2010E9426134B015C016EE28AEBB4
:100C800091E00E941D04E80EF91EC15018F120E009
:100C900030E040E251E4C501B4010E941F122B0173
:100CA0003C010E9405144B01B12CA12C4AE0C50166
:100CB000B4010E945B05E80EF91EC501B4010E9453
:100CC000BE119B01AC01C301B2010E9426134B016E
:100CD0005C01DBCFC701CF911F910F91FF90EF9087
:100CE000DF90CF90BF90AF909F908F907F906F904C
:100CF0005F904F900895FC0180819181009711F0E1
:100D00000C94741160E070E0CB010895FB01448104
:100D10005581FC01248135812417350778F08081C5
:100D20009181009759F0FB01608171816115710516
:100D300029F00E94921621E0892B09F020E0822FF1
:100D40000895FC0124813581232B39F421E0FB0136
:100D50008081882349F020E007C0808191810E9432
:100D6000821621E0892BB9F7822F08950F931F93E4
:100D7000CF93DF93EC0188819981009759F02A8104
:100D80003B812617370730F081E0DF91CF911F912B
:100D90000F9108958B016F5F7F4F0E94B1150097EF
:100DA00059F0998388831B830A832C813D81232BEF
:100DB00059F7FC011082E8CF80E0E7CFEF92FF9275
:100DC0000F931F93CF93DF93EC017B01198218825D
:100DD0001B821A821D821C82FB0101900020E9F710
:100DE00031978F01061B170BB8010E94B6068111BF
:100DF00009C0CE01DF91CF911F910F91FF90EF902D
:100E00000C9434051D830C83B70188819981DF918F
:100E1000CF911F910F91FF90EF900C948B169F92A2
:100E2000AF92BF92CF92DF92EF92FF920F931F93F8
:100E3000CF93DF937C016B015A0189012417350799
:100E400020F48B2D5901042F182F65E671E0C7019E
:100E50000E94DE06D6011496CD91DC91AC16BD063B
:100E600050F50C171D0708F4E801D601ED91FC912F
:100E70001197EC0FFD1F908010820D911C910A0DAF
:100E80001B1D0115110571F0F80101900020E9F713
:100E900031975F01A01AB10AB501C7010E94B606D9
:100EA000811116C0C7010E943405D6018D919C9115
:100EB000C80FD91F9882C701DF91CF911F910F9161
:100EC000FF90EF90DF90CF90BF90AF909F900895EC
:100ED000F701B582A482B801808191810E948B16AE
:100EE000E4CF4F925F926F927F928F929F92AF92D8
:100EF000BF92CF92DF92EF92FF920F931F93CF9307
:100F0000DF93CDB7DEB72D970FB6F894DEBF0FBED7
:100F1000CDBF8C016B01DB011496ED90FC90159711
:100F2000E114F10461F0AD90BC906CE270E0C50199
:100F30000E9477164C018A189B08892B19F4882483
:100F40008A94982C5401BFEFAB1ABB0AAE14BF04AD
:100F500008F024C1F601608071806CE270E0C3018A
:100F60008A0D9B1D0E947716009709F417C118146B
:100F700019040CF013C17C01E618F7081E141F04B5
:100F80000CF00CC1940150E040E0B601CE01019696
:100F90000E940F07CE0101960E947B062B013C01A7
:100FA000CE0101960E9446059701A501B601CE012A
:100FB00001960E940F07CE0101960E947B064B010D
:100FC0005C01CE0101960E944605D60114962D9132
:100FD0003C91A7014F5F5F4FB601CE0101960E9481
:100FE0000F07CE0101960E947B06F62ECE010196D8
:100FF0000E944605F80182819381892B09F454C02F
:10100000D2019927882788279927BB27BA2CA92C92
:10101000982C8824AA24BB2488299929AA29BB2989
:101020008F29AD0166277727892E9A2EAB2EBB24F8
:10103000F82C382F2085222391F0E22EF12CE49E0B
:10104000F001E59EF00DF49EF00D11244F2F289D28
:1010500040011124F92C289FC0011124392FD801F7
:101060001E96EC911E9719968D919C911A971B963E
:101070002C91E21721F0E80FF92FF11D1082D80111
:101080001B96EC911B97E80FF92FF11D40831C96DE
:10109000EC911C97E80FF92FF11DF0821D962C9111
:1010A000820F911DFC013083D80119968D919C917E
:1010B000892B09F473C00E94B601F801C784D08857
:1010C000E188F2886C157D058E059F0520F4678701
:1010D000708B818B928BF801C784D088E188F2886D
:1010E0006C197D098E099F096C327140810591054B
:1010F00010F3F894D80114968D919C9115979A83CA
:1011000089831996ED91FC917F01BFEFEB1AFB0AE1
:1011100080818D87F80190810388F489E02DD801C2
:1011200055968C91992309F450C09081982B9C87F7
:101130009081809589238B878B85888788E08F8332
:101140005C856B854D853F81288589819A81D70192
:10115000508347FD252F3A952083262F39F0441FD1
:1011600000C000006083000000C0F2CF38E04D9165
:1011700060830000019761F7D8015496FC93EE93C9
:1011800053974D873F8328879A83898378940E9459
:10119000B601F8016787708B818B928B2D960FB605
:1011A000F894DEBF0FBECDBFDF91CF911F910F919D
:1011B000FF90EF90DF90CF90BF90AF909F908F9077
:1011C0007F906F905F904F9008959081982B9C87AF
:1011D0009081809589238B878B858A8788E0898792
:1011E0005C856B854D8539852A8589819A81D701F2
:1011F000508347FD252F00C000C0208300C000C0E1
:1012000000C000C000C060830000262F3A9541F066
:10121000441F000000C000C000C000C000C0E8CFF4
:1012200038E04D9100C0608300C0019709F7D801F4
:101230005496FC93EE9353974D8739872A87A4CF12
:101240001F920F920FB60F9211242F933F938F93FB
:101250009F93AF93BF938091B2019091B301A091FE
:10126000B401B091B5013091B10123E0230F2D37C6
:1012700058F50196A11DB11D2093B1018093B201D3
:101280009093B301A093B401B093B5018091B601DE
:101290009091B701A091B801B091B9010196A11D3B
:1012A000B11D8093B6019093B701A093B801B0939C
:1012B000B901BF91AF919F918F913F912F910F9065
:1012C0000FBE0F901F90189526E8230F0296A11DC0
:1012D000B11DD2CF1F920F920FB60F9211242F93F0
:1012E0003F934F935F936F937F938F939F93AF93AE
:1012F000BF93EF93FF938091990190919A01A091F0
:101300009B01B0919C01892B8A2B8B2BD1F1909161
:101310009401E0919501F091960180818927808365
:101320008091990190919A01A0919B01B0919C01AB
:10133000181619061A061B069CF4809199019091C3
:101340009A01A0919B01B0919C010197A109B1095B
:101350008093990190939A01A0939B01B0939C0173
:10136000FF91EF91BF91AF919F918F917F916F917D
:101370005F914F913F912F910F900FBE0F901F9053
:101380001895809100010E941F03EACF1F920F92CF
:101390000FB60F9211242F933F934F935F936F9348
:1013A0007F938F939F93AF93BF93EF93FF938AEBBA
:1013B00091E00E94FB03FF91EF91BF91AF919F914C
:1013C0008F917F916F915F914F913F912F910F90EE
:1013D0000FBE0F901F9018951F920F920FB60F928D
:1013E00011242F938F939F93EF93FF93E091CA0162
:1013F000F091CB018081E091D001F091D10182FD8B
:101400001BC090818091D3018F5F8F732091D40195
:10141000821741F0E091D301F0E0E654FE4F958F42
:101420008093D301FF91EF919F918F912F910F9016
:101430000FBE0F901F9018958081F4CFCF92DF924E
:10144000EF92FF920F931F93E82FF92F05C00150E1
:1014500011092109310961F1908196239417B9F39B
:1014600005C0015011092109310911F1908196231C
:101470009413F7CFC12CD12CE12CF12C0AC08FEFA3
:10148000C81AD80AE80AF80A0C151D052E053F05EA
:1014900079F080818623841791F36C2D7D2D8E2D1C
:1014A0009F2D1F910F91FF90EF90DF90CF900895A7
:1014B00060E070E080E090E01F910F91FF90EF906E
:1014C000DF90CF9008950F931F93CF93DF93EC019C
:1014D000162F072F198218861F86188A198A1A8ACA
:1014E00081E08E878B871C8692E09D87888383E0CE
:1014F00090E09D838C830E948C149A878987009743
:1015000079F123E0FC0111922A95E9F781E090E05E
:101510009B838A831E830F838981882341F061E046
:10152000812F0E941D0160E0812F0E94EF00812F1A
:10153000902FFC01E556FF4FE491F0E0EE0FFF1F06
:10154000EF56FF4F259134913C8B2B8BFC01E155DD
:10155000FF4FE491ED8BDF91CF911F910F91089593
:101560001D821C821B821A82D5CFEAEBF1E0138226
:10157000128288EE93E0A0E0B0E084839583A68396
:10158000B7838CE091E09183808385EC90E0958730
:10159000848784EC90E09787868780EC90E0918B3D
:1015A000808B81EC90E0938B828B82EC90E0958B2A
:1015B000848B86EC90E0978B868B118E128E138E27
:1015C000148EA3E8B2E083E115968C9315978BE017
:1015D00016968C931697E2ECF0E0E4911796EC9354
:1015E0001797EEEAF0E0E4911896EC93189740E82C
:1015F0005EE360E070E01D964D935D936D937C9388
:1016000050976DE070E08DE692E00E94630A64E01E
:1016100070E087E592E00C94630ACF93DF93CDB737
:10162000DEB768970FB6F894DEBF0FBECDBF7894D3
:1016300084B5826084BD84B5816084BD85B58260D7
:1016400085BD85B5816085BD80916E008160809388
:101650006E001092810080918100826080938100F1
:101660008091810081608093810080918000816001
:10167000809380008091B10084608093B10080915C
:10168000B00081608093B00080917A008460809384
:101690007A0080917A00826080937A0080917A004B
:1016A000816080937A0080917A00806880937A00CC
:1016B0001092C100E091CA01F091CB0182E08083D9
:1016C000E091C601F091C7011082E091C801F0914C
:1016D000C90180E180831092D201E091CE01F091A6
:1016E000CF0186E08083E091CC01F091CD01808133
:1016F00080618083E091CC01F091CD018081886090
:101700008083E091CC01F091CD018081806880835D
:10171000E091CC01F091CD0180818F7D808361E0EB
:1017200088E00E941D0161E089E00E941D0161E0E6
:101730008AE00E941D0161E086E00E941D0161E0D7
:1017400087E00E941D0161E085E00E941D0161E0CB
:1017500082E00E941D0160E08CE00E941D0160E0BB
:1017600083E00E941D0161E08BE00E941D018DE677
:1017700092E00E948A0487E592E00E948A0462E077
:10178000809188020E941D010E940D02605D7740D9
:101790008109910960938C0270938D0280938E026F
:1017A00090938F0287E3809395020E9429058AEB2C
:1017B00091E00E94DB03181619060CF063C065E681
:1017C00071E0CE0107960E94DE060E949B0397FD02
:1017D0001EC08A309105D9F089831A820B851C8539
:1017E0000F5F1F4FB801CE0107960E94B6068823EF
:1017F00061F32F8138858B859C85BE016F5F7F4F9C
:10180000820F931F0E948B161C870B87DECFCF8021
:10181000D884C114D10431F0EB84FC848601E11436
:10182000F104F1F568E271E0CE0101960E94DE0656
:10183000BE016F5F7F4FCE0107960E948606182F6C
:10184000CE0101960E944605112309F462C02B8542
:101850003C8549E050E0BE01695F7F4FCE010196B3
:101860000E940F07CE0101960E947B066B01CE01FC
:1018700001960E944605C6010E94EE04CE0107961D
:101880000E94460580E090E0892B09F490CF0E94E9
:10189000E703882309F48BCF0E94000088CF8501DD
:1018A00058012FEFA21AB20AD8018C91082E000C11
:1018B000990B0E94B011892B91F7B1E0EB1AF10856
:1018C000EC0CFD1CF7018081082E000C990B0E9486
:1018D000B011892B39F0E016F10620F0F1E0EF1A93
:1018E000F108F0CF2FEFE21AF20AA701401B510BCB
:1018F0005C874B87C016D10620F4B801C6010E9450
:101900006E16EF81F8858B859C85E80FF91F108294
:1019100089CF62E371E0CE0101960E94DE06BE012E
:101920006F5F7F4FCE0107960E948606182FCE016B
:1019300001960E9446051123C1F02B853C8549E0A4
:1019400050E0BE01695F7F4FCE0101960E940F07F4
:10195000CE0101960E947B066B01CE0101960E948A
:101960004605C6010E94A00489CF6CE371E0CE0158
:1019700007960E94A106811108C06AE471E0CE01B9
:1019800007960E94A106882319F00E94290576CFA8
:1019900066E571E0CE0107960E94A106882309F44E
:1019A0004CC060E082E00E94EF0083E090E001978D
:1019B000F1F761E082E00E94EF0083E290E001979E
:1019C000F1F760E082E00E94EF00EBEBF0E0649161
:1019D000E7EAF0E0E491F0E0EE0FFF1FE957FF4F78
:1019E0008591949100E315E720E030E0462F0E94B6
:1019F0001E0A6115710581059105D1F06F5F7F4F5A
:101A00008F4F9F4F9F70611571058105910581F082
:101A10002AE330E040E050E00E946014CA01B901BE
:101A20004AE00E945B0583E691E00E944E0526CFC6
:101A300067EE73E080E090E0F3CF66E671E0CE0100
:101A400007960E94A1068823F1F0E6E7F0E0849172
:101A5000E2EBF0E01491EEE9F0E00491002309F4E8
:101A6000FEC381110E94C600E02FF0E0EE0FFF1FC1
:101A7000E957FF4FA591B491EC911E2309F4EFC3F0
:101A800085E791E0E1C06CE671E0CE0107960E9427
:101A9000A106882309F42EC10E940D022B013C01EE
:101AA0008091AD019091AE01A091AF01B091B001D4
:101AB000B301A201481B590B6A0B7B0B403D5740F9
:101AC0006105710528F4892B8A2B8B2B09F0B6C090
:101AD0000E941902882349F0809189028B3028F0F6
:101AE0008D3050F085518230C8F1812C912CA0ECC2
:101AF000AA2EAFE7BA2E1EC06091840270E090E07B
:101B000080E00E94C0112DEC3CEC4CEC5DE30E94A7
:101B10001F126B017C016091830270E090E080E015
:101B20000E94C0119B01AC01C701B6010E9427139E
:101B30004B015C010E941902882309F474C0809152
:101B400089028C3009F483C0D8F48B3091F1C12C18
:101B5000D12CE0ECEE2EEFE7FE2E55C06091830213
:101B60007091840276276727762790E080E00E94B4
:101B7000BE112DEC3CEC4CEC5DE30E941F12D8CF63
:101B80008551823020F710918502612F70E0762F09
:101B9000662766277F7780918602682B90E080E039
:101BA0000E94BE112DEC3CEC4CEC5DE30E941F1238
:101BB0006AC06091850270E090E080E00E94BE11F2
:101BC0006B017C011091860217FF0AC0AC019B01DA
:101BD00060E070E080E89FEB0E9426136B017C01BF
:101BE0001F70612F70E090E080E00E94C0112DEC2A
:101BF0003CEC4CEC5DE30E941F12A70196010E9491
:101C000027136B017C01A5019401C501B4010E9459
:101C10003914811108C0A7019601C701B6010E94BD
:101C200039148823C9F181E0809301014092AD010C
:101C30005092AE016092AF017092B00180910101AB
:101C40008823E9F183E791E00E944E05ECCE1091E4
:101C50008502612F70E090E080E00E94BE116B0170
:101C60007C01609186026F7070E090E080E00E94DD
:101C7000C0112DEC3CEC4CEC5DE30E941F12A7015F
:101C800096010E9427136B017C0117FFBCCFF7FA66
:101C9000F094F7F8F094B7CF109201018092A90167
:101CA0009092AA01A092AB01B092AC01C092A501A2
:101CB000D092A601E092A701F092A801B7CF60915F
:101CC000A9017091AA018091AB019091AC0142E011
:101CD0000E949F0587E791E00E944E056091A50153
:101CE0007091A6018091A7019091A80142E00E9405
:101CF0009F0599CE69E771E0CE0101960E94DE064C
:101D0000BE016F5F7F4FCE0107960E948606182F97
:101D1000CE0101960E9446051123B9F02B853C8522
:101D200048E050E0BE01695F7F4FCE0101960E94FE
:101D30000F07BE016F5F7F4F8DE692E00E94710733
:101D4000CE0101960E94460599CD62E871E0CE0170
:101D500001960E94DE06BE016F5F7F4FCE0107969F
:101D60000E948606182FCE0101960E944605112377
:101D700089F02B853C8548E050E0BE01695F7F4FCC
:101D8000CE0101960E940F07BE016F5F7F4F87E56E
:101D900092E0D4CF6BE871E0CE0101960E94DE069E
:101DA000BE016F5F7F4FCE0107960E948606182FF7
:101DB000CE0101960E944605112309F45FCD8B8563
:101DC0009C85892B61F0EF80F8846CE270E0C7019C
:101DD0000E9477168C010E191F09892B11F40FEF41
:101DE0001FEF980148E050E0BE01695F7F4FCE01D0
:101DF00001960E940F07CE0101960E947B066D8717
:101E00007E878F87988BCE0101960E9446052B8591
:101E10003C85A8014F5F5F4FBE01695F7F4FCE01D8
:101E200001960E940F07CE0101960E947B06698BE6
:101E30007A8B8B8B9C8BCE0101960E9446058989FB
:101E40009A89092E000CAA0BBB0B8D8B9E8BAF8B36
:101E5000B88F809100018B3009F08EC0E8E6F0E089
:101E6000149117FD0BCD61E08BE00E941D01112341
:101E7000C1F08D849E84AF84B888AA24BB2460E01E
:101E800072E18AE790E0A50194010E946014690163
:101E90007A0191E0C91AD108E108F108123009F07D
:101EA00082C18D849E84AF84B888AA24BB2460E05C
:101EB00072E18AE790E0A50194010E946014290173
:101EC0003A017A016901A1E0CA1AD108E108F108D2
:101ED000BFEFCB16D104E104F10409F00CF437C1D3
:101EE00060E472E48FE090E0A50194010E94601428
:101EF00069017A01E1E0CE1AD108E108F108123057
:101F000009F0ACC082E0FFEFCF16D104E104F10488
:101F100009F00CF4EEC060E970ED83E090E0A501FB
:101F200094010E94601469017A0181E0C81AD10805
:101F3000E108F10883E09FEFC916D104E104F10440
:101F400009F00CF4D6C068E478EE81E090E0A501D9
:101F500094010E94601469017A01F1E0CF1AD1085E
:101F6000E108F1082FEFC216D104E104F10411F0E9
:101F70000CF0C6C084E0BDC08F3F09F07FCC8BE081
:101F800080930001E8E6F0E014911F3F09F476CC5D
:101F9000113021F150F0123009F43EC017FD6ECC23
:101FA00061E08BE00E941D0164CF14BC15BC84B5B8
:101FB000826084BD85B5816085BDE6EAF0E0E4918C
:101FC000F0E0EE0FFF1FEF56FF4F85919491EAEB83
:101FD000F0E0E491E093980110E045CF109280008A
:101FE00010928100809181008860809381008091AF
:101FF0008100816080938100E6EAF0E0E491F0E006
:10200000EE0FFF1FEF56FF4F85919491EAEBF0E042
:10201000E491E093970127CF1092B0001092B100A5
:102020008091B00082608093B0008091B1008160A7
:102030008093B100E6EAF0E0E491F0E0EE0FFF1FDC
:10204000EF56FF4F8591949190939601809395015F
:10205000EAEBF0E0E491E093940105CFAFEFCA160C
:10206000D104E104F10409F00CF49BC068E478EEBB
:1020700081E090E0A50194010E94601469017A0159
:10208000B1E0CB1AD108E108F108112309F403C12A
:102090009FEFC916D104E104F10409F00CF46ACFF2
:1020A00062E17AE780E090E0A50194010E9460146B
:1020B00069017A0181E0C81AD108E108F108112309
:1020C00009F4D0C086E0EFEFCE16D104E104F104AC
:1020D00081F078F0730162018AE0F594E794D79477
:1020E000C7948A95D1F7B1E0CB1AD108E108F1087D
:1020F00087E09091B100987F892B8093B1002EC02A
:1021000064E274EF80E090E0A50194010E94601405
:1021100069017A01E1E0CE1AD108E108F10885E011
:10212000FFEFCF16D104E104F10419F310F362E1DB
:102130007AE780E090E0A50194010E9460146901B3
:102140007A0181E0C81AD108E108F108BBCF81E02B
:102150001111CFCF95B5987F892B85BD8D899E892B
:10216000AF89B88D2FEF3FEFA901892B8A2B8B2BDD
:1021700009F042C0113009F450C0123009F45FC0B8
:1021800011117CCBC7BC2093A1013093A2014093D5
:10219000A3015093A40180916E00826080936E0031
:1021A0006DCB82E0D5CFC114D10491E0E906F104F2
:1021B00094F168E478EE81E090E0A50194010E943A
:1021C000601469017A01A1E0CA1AD108E108F10896
:1021D00093E0113019F680918100887F892B8093DC
:1021E00081008D899E89AF89B88D2FEF3FEFA901BE
:1021F000892B8A2B8B2B89F02D853E85220F331F4F
:10220000A989BA890E947F1428EE33E040E050E0AB
:102210000E943E14AFCF91E0DCCFD0928900C092F3
:10222000880020939D0130939E0140939F0150931D
:10223000A00180916F00826080936F001FCBC092DD
:10224000B3002093990130939A0140939B015093DE
:102250009C01809170008260809370000FCB86E2B9
:1022600091E0F2CC84E0AFEFCA16D104E104F104AE
:1022700009F008F46FCF730162019AE0F594E794D6
:10228000D794C7949A95D1F791E0C91AD108E1087B
:10229000F10885E05FCF83E0AFEFCA16D104E10417
:1022A000F10409F00CF456CFFBCE809160029091BE
:1022B00061020E94281580915D0290915E0297FD57
:1022C00003C060E00E941D01809176029091770228
:1022D0000E942815809173029091740297FD03C0AB
:1022E00060E00C941D0108951F93FC019927882735
:1022F000BC01E89411911032E9F3193010F01E304E
:10230000C8F31B3251F01D3249F4689406C00E9494
:102310009B11610F711D811D911D119110531A3078
:10232000B0F33EF490958095709561957F4F8F4FF7
:102330009F4F1F910895592F482F372F262F660F33
:10234000771F881F991F660F771F881F991F620FBD
:10235000731F841F951F660F771F881F991F08958D
:1023600091110C948C12803219F089508550C8F765
:1023700008950E94FB1108F481E00895E89409C0D3
:1023800097FB3EF490958095709561957F4F8F4FA8
:102390009F4F9923A9F0F92F96E9BB279395F695BE
:1023A000879577956795B795F111F8CFFAF4BB0F3C
:1023B00011F460FF1BC06F5F7F4F8F4F9F4F16C0A0
:1023C000882311F096E911C0772321F09EE8872F2A
:1023D000762F05C0662371F096E8862F70E060E0E6
:1023E0002AF09A95660F771F881FDAF7880F96955F
:1023F000879597F90895990F0008550FAA0BE0E803
:10240000FEEF16161706E807F907C0F012161306B6
:10241000E407F50798F0621B730B840B950B39F4F6
:102420000A2661F0232B242B252B21F408950A265C
:1024300009F4A140A6958FEF811D811D08950E948A
:1024400032120C94A6120E94981238F00E949F1229
:1024500020F0952311F00C948F120C9495121124F6
:102460000C94DA120E94B71270F3959FC1F3950F86
:1024700050E0551F629FF001729FBB27F00DB11D08
:10248000639FAA27F00DB11DAA1F649F6627B00D98
:10249000A11D661F829F2227B00DA11D621F739F81
:1024A000B00DA11D621F839FA00D611D221F749F8F
:1024B0003327A00D611D231F849F600D211D822FD6
:1024C000762F6A2F11249F5750409AF0F1F08823FD
:1024D0004AF0EE0FFF1FBB1F661F771F881F91502A
:1024E0005040A9F79E3F510580F00C948F120C9438
:1024F000DA125F3FE4F3983ED4F3869577956795BB
:10250000B795F795E7959F5FC1F7FE2B880F911D53
:102510009695879597F9089599278827089597F9AB
:102520009F6780E870E060E008959FEF80EC089579
:1025300000240A94161617061806090608950024A2
:102540000A9412161306140605060895092E03941C
:10255000000C11F4882352F0BB0F40F4BF2B11F490
:1025600060FF04C06F5F7F4F8F4F9F4F089557FDEF
:102570009058440F551F59F05F3F71F04795880FF1
:1025800097FB991F61F09F3F79F087950895121688
:1025900013061406551FF2CF4695F1DF08C0161634
:1025A00017061806991FF1CF8695710561050894E5
:1025B0000895E894BB2766277727CB0197F90895FC
:1025C0002F923F924F925F926F927F928F929F9243
:1025D000AF92BF92CF92DF92EF92FF920F931F9331
:1025E000CF93DF93CDB7DEB7CA1BDB0B0FB6F894E2
:1025F000DEBF0FBECDBF09942A88398848885F8422
:102600006E847D848C849B84AA84B984C884DF8092
:10261000EE80FD800C811B81AA81B981CE0FD11D76
:102620000FB6F894DEBF0FBECDBFED010895A29F97
:10263000B001B39FC001A39F700D811D1124911D96
:10264000B29F700D811D1124911D08955058BB2714
:10265000AA270E943E130C94A6120E94981238F0EA
:102660000E949F1220F039F49F3F19F426F40C9435
:1026700095120EF4E095E7FB0C948F12E92F0E945F
:10268000B71258F3BA17620773078407950720F04B
:1026900079F4A6F50C94D9120EF4E0950B2EBA2F0E
:1026A000A02D0B01B90190010C01CA01A001112458
:1026B000FF27591B99F0593F50F4503E68F11A1604
:1026C000F040A22F232F342F4427585FF3CF469595
:1026D00037952795A795F0405395C9F77EF41F16B7
:1026E000BA0B620B730B840BBAF09150A1F0FF0F81
:1026F000BB1F661F771F881FC2F70EC0BA0F621F6D
:10270000731F841F48F4879577956795B795F7955C
:102710009E3F08F0B0CF9395880F08F09927EE0FF1
:102720009795879508950E94A7130C94A6120E946E
:102730009F1258F00E94981240F029F45F3F29F050
:102740000C948F1251110C94DA120C9495120E9471
:10275000B71268F39923B1F3552391F3951B550BE9
:10276000BB27AA2762177307840738F09F5F5F4F64
:10277000220F331F441FAA1FA9F335D00E2E3AF0A3
:10278000E0E832D091505040E695001CCAF72BD0BB
:10279000FE2F29D0660F771F881FBB1F261737070C
:1027A0004807AB07B0E809F0BB0B802DBF01FF273E
:1027B00093585F4F3AF09E3F510578F00C948F127A
:1027C0000C94DA125F3FE4F3983ED4F38695779544
:1027D0006795B795F7959F5FC9F7880F911D9695F7
:1027E000879597F90895E1E0660F771F881FBB1F53
:1027F000621773078407BA0720F0621B730B840B00
:10280000BA0BEE1F88F7E09508950E94BF1288F07A
:102810009F5798F0B92F9927B751B0F0E1F0660FA4
:10282000771F881F991F1AF0BA95C9F714C0B130E5
:1028300091F00E94D912B1E008950C94D912672F3B
:10284000782F8827B85F39F0B93FCCF38695779514
:102850006795B395D9F73EF49095809570956195FD
:102860007F4F8F4F9F4F08950E94FB1108F48FEF09
:1028700008950E94FB11880B990B0895A1E21A2E6E
:10288000AA1BBB1BFD010DC0AA1FBB1FEE1FFF1F14
:10289000A217B307E407F50720F0A21BB30BE40B64
:1028A000F50B661F771F881F991F1A9469F76095AB
:1028B0007095809590959B01AC01BD01CF01089565
:1028C000052E97FB1EF400940E94771457FD07D045
:1028D0000E943E1407FC03D04EF40C9477145095DC
:1028E0004095309521953F4F4F4F5F4F08959095FC
:1028F0008095709561957F4F8F4F9F4F08950E94EF
:102900001713B7FF0895821B930B0895EE0FFF1F57
:102910000590F491E02D09940F931F93CF93DF93CB
:102920008230910510F482E090E0E0919802F091FD
:10293000990230E020E0B0E0A0E0309799F4211552
:10294000310509F44AC0281B390B24303105D8F56C
:102950008A819B816115710589F1FB0193838283D3
:10296000FE0111C04081518102811381481759072E
:10297000E0F04817590799F4109761F012960C93FC
:10298000129713961C933296CF01DF91CF911F912E
:102990000F9108950093980210939902F4CF211596
:1029A000310551F04217530738F0A901DB019A01B4
:1029B000BD01DF01F801C1CFEF01F9CF909399027A
:1029C00080939802CDCFFE01E20FF31F8193919384
:1029D0002250310939832883D7CF20919602309134
:1029E0009702232B41F4209104013091050130938B
:1029F0009702209396022091020130910301211544
:102A0000310541F42DB73EB74091060150910701C1
:102A1000241B350BE0919602F0919702E217F30721
:102A2000A0F42E1B3F0B2817390778F0AC014E5F3E
:102A30005F4F2417350748F04E0F5F1F50939702E2
:102A400040939602819391939FCFF0E0E0E09CCF7A
:102A5000CF93DF930097E9F0FC0132971382128243
:102A6000A0919802B0919902ED0130E020E010971A
:102A7000A1F420813181820F931F20919602309121
:102A800097022817390709F061C0F0939702E09385
:102A90009602DF91CF910895EA01CE17DF07E8F59E
:102AA0004A815B819E0141155105B1F7E901FB8324
:102AB000EA8349915991C40FD51FEC17FD0761F4C2
:102AC000808191810296840F951FE9019983888303
:102AD000828193819B838A83F0E0E0E012968D915E
:102AE0009C9113970097B9F52D913C911197CD01C9
:102AF0000296820F931F2091960230919702281719
:102B0000390739F6309751F51092990210929802D0
:102B1000B0939702A0939602BCCFD383C283408127
:102B20005181840F951FC817D90761F44E5F5F4F1D
:102B300088819981480F591F518340838A819B81E5
:102B4000938382832115310509F0B0CFF093990268
:102B5000E09398029ECFFD01DC01C0CF1382128268
:102B6000D7CFB0E0A0E0E7EBF5E10C94E2128C01E6
:102B7000009751F4CB010E948C148C01C801CDB791
:102B8000DEB7E0E10C94FE12FC01E60FF71F9C019A
:102B900022503109E217F30708F49DC0D901CD9105
:102BA000DC911197C617D70798F0C530D10530F3DF
:102BB000CE0104978617970708F3C61BD70B2297F9
:102BC000C193D1936D937C93CF010E942815D6CFEA
:102BD0005B01AC1ABD0A4C018C0E9D1EA09198029F
:102BE000B0919902512C412CF12CE12C109731F528
:102BF00080919602909197028815990509F05CC022
:102C00004616570608F058C08091020190910301C2
:102C1000009741F48DB79EB740910601509107018E
:102C2000841B950BE817F90708F055C0F09397023D
:102C3000E0939602F90171836083A0CF8D919C91FE
:102C4000119712966C90129713967C901397A81573
:102C5000B90559F56C0142E0C40ED11CCA14DB045D
:102C600020F1AC014A195B09DA011296159780F040
:102C70006282738251834083D9016D937C93E11406
:102C8000F10471F0D7011396FC93EE93129776CF6F
:102C900022968C0F9D1FF90191838083F301EFCF62
:102CA000F0939902E093980269CF4816590608F408
:102CB0002C017D01D3019ACFCB010E948C147C01A1
:102CC000009749F0AE01B8010E946E16C8010E943B
:102CD0002815870153CF10E000E050CFFB01DC0145
:102CE00002C001900D9241505040D8F70895FC0168
:102CF0008191861721F08823D9F799270895319774
:102D0000CF010895FB01DC018D9101908019011024
:102D1000D9F3990B0895FB01DC0101900D9200207D
:102D2000E1F70895FB01DC014150504030F08D91F6
:102D30000190801919F40020B9F7881B990B0895A8
:102D400010E0C3E6D0E004C0FE010E948614219684
:0A2D5000C436D107C9F7F894FFCF8D
:102D5A00FF0100009A028000000000001D044B03DE
:102D6A0078036A04DB038703CD036E616E00696E24
:102D7A0066006F766600310041542B4D5F495A5107
:102D8A003D0041542B4D5F4445523D0041542B4D6B
:102D9A004F544F523D53544F500041542B53544FAC
:102DAA00505F414C4C0041542B44495354414E43CB
:102DBA004941000D0A0041542B49520041542B4409
:102DCA00485400302C30002C0041542B4C454431DF
:102DDA003D0041542B4C4544323D0041542B4E4F4B
:042DEA0054453D000F
:00000001FF
